:020000040000FA
:1000000028260020C1000000D91C00009B1600001B
:10001000FFFFFFFFFFFFFFFFFFFFFFFFFFFFFFFFF0
:10002000FFFFFFFFFFFFFFFFFFFFFFFF4D2200006D
:10003000FFFFFFFFFFFFFFFFDB1C0000330100009D
:1000400035010000350100003501000035010000D8
:1000500035010000350100003501000035010000C8
:1000600035010000FFFFFFFF3501000035010000F2
:10007000350100003501000035010000FFFFFFFFE2
:10008000FFFFFFFF35010000350100009D16000055
:10009000391800003501000035010000B1240000CE
:1000A0001526000035010000350100003501000073
:1000B0003501000035010000350100003501000068
:1000C0001D4880471D4880471D4800471D4801695D
:1000D000002908D14169002905D18169002902D18F
:1000E000C169002909D01848C1680901090D002912
:1000F0000ED005290CD006290AD0BFF34F8F134824
:100100001349016013491248C860BFF34F8FFEE7DF
:100110000E4801680E48884200D070470E480F49CB
:1001200001600A480E4901607047FEE7FEE7FEE7FE
:10013000FEE7FEE7FEE70000CD000000B122000070
:100140006501000000030840800108400000002015
:100150000400FA0500ED00E0008108400100000005
:10016000000000000448854600F038FF00480047C2
:100170005D3A0000C046C0462826002030B50B4638
:10018000014600202022012409E00D46D5409D4271
:1001900005D31D469540491B2546954040191546F7
:1001A000521E002DF1DC30BD03460B439B0703D0EC
:1001B00009E008C9121F08C0042AFAD203E00B782C
:1001C0000370401C491C521EF9D27047D2B201E0A4
:1001D0000270401C491EFBD270470022F6E710B5A2
:1001E00013460A4604461946FFF7F0FF204610BDA5
:1001F000421E5378521C002BFBD10B781370491C04
:10020000521C002BF9D1704730B505462A460B46E3
:1002100010781C78521C5B1C002801D0A042F7D03B
:10022000002C03D0002802D06D1CEFE7284630BD1B
:1002300010B5044605E00B780370401C002B00D07D
:10024000491C521EF7D2204610BD10B5002200E016
:10025000521C835C8C5CA34201D1002BF8D1D8B234
:10026000E1B2401A10BD03460A780270401C491CD6
:10027000002AF9D11846704770B5104D002800D1FA
:100280002868002414E00A4602E09E4203D0521C73
:100290001378002BF9D1DAB2224307D0002B06D015
:1002A000002C04D000210170401C04E00446401CD6
:1002B0000678002EE7D12860204670BD400000205F
:1002C00030B50546002008E00A4602E0A34207D008
:1002D000521C1378002BF9D1401C2C5C002CF3D15C
:1002E00030BD0000FFB5087889B01546FF2805D05D
:1002F000491C2D2804D00022002407E000240BE034
:100300000122F9E70A235C430419491C0878FF28F5
:10031000F8D1002A00D06442002004902A780146D7
:100320002D2A01D02B2A0FD16D1C2D2A02D000229C
:10033000049209E00122FBE700260A2233466D1CE5
:1003400000F0B8FB381871412F78FF2FF4D10C9AC8
:10035000A218069202460A4304D0FF23069A91335C
:10036000DA4205DA002109980A4606C00DB0F0BD50
:100370000024B74AB54D2646079200F001FE0290D0
:1003800006980391002801DA474200E00746390544
:100390000020AF4A001C51410191009012E0F80783
:1003A00007D022462B463046079900F009FD064645
:1003B000079122462B461046194600F001FD0446DF
:1003C0000D467F10002FEAD10698019B0028009A65
:1003D0000399029806DA00F05BFD3246079B00F0B5
:1003E00057FD05E000F0ECFC3246079B00F0E8FC0E
:1003F000049A002A02D00122D2075140099A03C26E
:10040000B4E7FFB591B0002009900025ED432E2000
:100410009E685C681F460190B9696D1C12988847F8
:100420000090396A88470028F6D10098401C0AD00D
:100430000D20C0018443002E12DD00982B2809D026
:100440002D280DD103E00020C04315B0F0BD0120E0
:1004500080020443B9696D1C12988847761E00908B
:1004600003A9600501D52D2000E02B206A461073FA
:10047000491C0CA80F9102900AE0B9696D1C1298F2
:10048000884700900120400204431398761E0560BF
:10049000002E02DD00983028EFD0019900988842A4
:1004A00046D18020044308E00998401E09900120AD
:1004B000400204431399681C0860B9696D1C761EDC
:1004C0001298884700903028EED031E00199884298
:1004D00005D1200603D480200443761E1EE0009838
:1004E00002F0CCFA002826D001204002044307A9DC
:1004F0000F980331761E88420BD200980F9930383E
:1005000008700F98401C0F90200607D50998401ED0
:1005100003E0200602D40998401C0990A00502D5EA
:100520001399681C0860B9696D1C1298884700907F
:10053000002ECBDC59E0002E57DD0098652801D055
:10054000452852D1A00550D5032000028443B96943
:100550006D1C761E129888470090002E0CDD2B280B
:1005600004D02D2808D1FF2001300443B9696D1C47
:1005700012988847761E0090E00501D52D2100E0F5
:100580002B21029801700298401C0290019025E0F6
:100590000120400204430EA902980131761E8842D0
:1005A0000ED20098029930380006000E087003D170
:1005B0000299019881420AD90298401C029006E0F3
:1005C000E00501D5234801E0224840420990B9697D
:1005D0006D1C12988847009013980560002E04DD6A
:1005E000009802F04BFA0028D2D1F9691298884796
:1005F0000F99FF200870029903AA087000200A9042
:100600000B900CA90AA8099BFFF76CFEA00502D469
:100610000120C04319E72420044209D0E00713D188
:1006200038680B9A0A99031D3B60006806C00BE00E
:100630000B990A9800F0F2F90146E00704D13868F6
:10064000021D3A60006801602846FEE60000144082
:100650000000F03FF1D8FFFFF8B502464A40D40F42
:1006600042004B0052085B089A4202D202460846FA
:1006700011464A0023D0C30D4A00DDB2120EAD1A56
:10068000202D35DA49020126490AF6058A19002C7F
:1006900000D0524220214F1B1146B9402A41101868
:1006A000C20D9A4221D0002C17D0012D08DCDA05AA
:1006B000801AD20F8019D207DBB200F0E9FAF8BD38
:1006C000DA05801A012340001B06C01880185A4220
:1006D0008018CA0F1043490007E04908C2071143B8
:1006E000DA05801A80194008801800F0C9FAF8BDB0
:1006F00061000122511A001BF7E70122D207514085
:10070000AAE70122D2075040A6E7024670B54A4048
:10071000D30FDB0740002DD04A002AD0010E140E63
:10072000000212020919400A520A8418E50104461F
:100730005443000A120A2E045043A4194219200CF3
:10074000C543AA18120C0125AD03521C52191204FC
:100750007F39240400D0521C104301D44000491EAC
:10076000C2B20C06C0092018401C4008802A02D0E2
:1007700003E0002070BD40084000002900DA00209E
:10078000184370BD70B502464A40D50F40004A007C
:10079000ED0740085208002814D0002A12D0C40DDA
:1007A000D30D41020120C0055202490A520AE41A3F
:1007B000091812187D34914201D3641C00E04900ED
:1007C000002C01DA002070BD0023914201D3891A68
:1007D0000343400849000028F7D100290AD091427C
:1007E00002D10121C90705E0914201D2012101E0B6
:1007F0000121C943E005C018401900F041FA70BD5D
:10080000420005D04200120E52428A4201DB002013
:100810007047C90508187047F0B5074608465840A4
:1008200087B0C00F049048000E46590040084908A0
:10083000BC1A884105D2384631461E4617460B463B
:1008400002465800400810434DD0300D039040053B
:100850005900400D490D0590401A0290402873DA66
:1008600018030121000B0905084301900498009228
:10087000002806D01146019A49420020904100917B
:100880000190029840210A1A0199009800F04FF94E
:1008900005460C466B4607CB00F06AF9C01971415A
:1008A000039A0E0D0023D71756401A467A40164376
:1008B00044D0049A002A2DD0029A012A039A15DC0A
:1008C0001205C01A914101263605001C7141D20F54
:1008D000059ED2070093019202962A46234600F015
:1008E0001DFA07B0F0BD38463146FAE71605234A2F
:1008F0000F46B218C01AB74101210905001C4F412B
:1009000000187F41114618187941E20F10436D1904
:10091000644113E0E2076D0815436408C2071443FD
:10092000039A01261205C01A91413605001C714137
:10093000CE07400830434908C01851412A46234693
:1009400000F0DFF9CDE7FFE7049801224000C1176E
:10095000121A00238B4104983146C417381AA1415A
:10096000EEE730B40124E407634030BC54E730B410
:100970000124E407614030BC4EE700000000E0FFC6
:10098000C217C10F504010B54018CA079623002166
:1009900000F07EF910BD10B500229623114600F03C
:1009A00077F910BD410040020122400AD205090E2C
:1009B00080187F2901DA00207047962903DC9622EF
:1009C000511AC8407047963988407047C20FD20705
:1009D000400040080BD0C10D0723DB01C9184002BD
:1009E0000905400A1143C20840071143704700201F
:1009F0000146704710B5002904DB0124E40740429A
:100A00008C412146002B04DB1C460123DB075242AC
:100A1000A341994200D1904210BD0000CB0FDB07EB
:100A2000490010B5490802460A4307D00A0D0724B9
:100A30000903E401090B121B002A01DC002010BD90
:100A4000C900440F0C43C100E018D205801800F023
:100A500017F910BDF0B51FB40646002082B0054658
:100A60004024019100901BE0019922460F46304638
:100A700000F06DF8049A059B801A994110D3104636
:100A80001946224600F053F8361A8F410197224644
:100A900001200021009F00F04AF838184D410090D5
:100AA0002046641E0028DFDC019B00982946324660
:100AB00007B0F0BDF0B51FB486B0002000900190E3
:100AC00002900698069980B204900798090C0204D7
:100AD0000014114307900027089D099806913E468F
:100AE0003C4603900398A9B20204000C03900498BA
:100AF0002D0C154348430021224600F018F8C71971
:100B0000714110340E46402CECDB3846029A00F05E
:100B10000EF8009A019B80180090594102980191AB
:100B2000103002904028CCDB00980BB0F0BD10B51F
:100B3000202A04DB0146203A9140002010BD91405C
:100B400020239C1A0346E3401943904010BD10B582
:100B5000202A04DB0846203AD040002110BD0B4675
:100B6000D340D0402024A21A91400843194610BD1A
:100B700010B5202A06DBCB170846203A1041C117D2
:100B80000B4306E00B461341D0402024A21A9140AB
:100B90000843194610BD4268002A08D001680B7846
:100BA000491C002B03D0521E06C018467047012175
:100BB000C160881E70474268002A0BD0C368016874
:100BC000002B07D183688B4204D0491E521C06C0FB
:100BD000002070470020C043704700000FB400B5EC
:100BE00089B00CA900910B990023CB60204B214ABE
:100BF00006930792042201921F4A02921F4A08920A
:100C000002466B460020FFF7FCFB09B008BC04B0AD
:100C1000184770B586B006460020C04301900020FA
:100C200015460C460091029104903246694604A88C
:100C3000FFF7D4FF024604982118002D05D00028A4
:100C400001D0084600E020462860049800280DD016
:100C5000002A02DD0098884208D0081B0190009409
:100C600032466946029404A8FFF7B8FF06B070BD8B
:100C7000970B0000B70B0000FFFFFF7F0110000083
:100C8000002904DA401C490001D1400840007047A7
:100C900070B40024050C05D11024000402D10029F1
:100CA00021D01124050E01D100020834050F01D115
:100CB0000001241D850F01D18000A41C002801DB48
:100CC0004000641C002908D020252E1B0D46F5404D
:100CD000A14000D001212943084301061B1B000A43
:100CE000DB1D02D5002070BC7047DB05181880188A
:100CF0000029F8DA401C4900F5D170BC40084000DA
:100D0000704710B5002B08DA0024401C614192188E
:100D10005B411A4301D14008400010BDF0B51FB43B
:100D200082B005460C0003D0084601F01DFD02E02C
:100D300001F01AFD20300246009021462846FFF7B8
:100D4000F6FE049B059A04460F46184311430843D8
:100D500014D0184610431BD0009840210A1A184698
:100D60000599FFF7F4FE05460E46009A059904988A
:100D7000FFF7DDFE084305D0012004E02046394698
:100D800007B0F0BD0020C11705430E432C43374385
:100D900000990E986305401A7905E40A00220C4375
:100DA000FD0A0A3002D500200146E9E701051019C5
:100DB00069410C9C0D9D00196941FFF7A2FFDFE717
:100DC000F0B51FB488B00B990998002448400999E0
:100DD000C00F490049080991C0070B9900904900CC
:100DE00049080B9109990898A64608431CD00B990D
:100DF0000A98084318D0099801244000420D480081
:100E0000410D099824050003000B204309900B981D
:100E10000003000B20430B9050181C49401800227F
:100E200001901446104605E0002001460DB0F0BDCB
:100E3000032801DA034600E003239C46C11A0AAEE8
:100E40000AE05F0008ADED5B4F00F75B7D430027D4
:100E5000AA187C41491C5B1E6145F2DD410004ABD0
:100E60005A522104120C0A43240C401C0828DFDBD0
:100E7000019802900099704601910090059B049A98
:100E800007990698FFF74AFFD0E700000DFCFFFF27
:100E9000F0B50C465C4085B0E40FE40703944C00C9
:100EA00000266408590094464908024602962243E7
:100EB00021D062460A431ED06200570D4A000E033D
:100EC0002303550D012402462C492405781B1B0BD6
:100ED000360B401823432643614600901C46501AA7
:100EE000B44103D30098401C009002E0921800988F
:100EF0005B41002803DA0020014605B0F0BD002068
:100F0000012109050746864611E064461D46141B6B
:100F1000B54106D36546521BB341744607430C43A3
:100F2000A646CD0740084908284392185B4105466C
:100F30000D43EAD11046184313D06046194650407D
:100F40007140084306D06046101AB34106D2012210
:100F5000002306E000220123DB0702E00122D24346
:100F60005310009874460105381C6141029C039D92
:100F700000196941FFF7C5FEBFE70000FD0300004F
:100F80000EB5054A02920022009213460192FFF725
:100F9000C5FE03B000BD0000330400004A00090391
:100FA0000123090B1B0519430A4B10B5520D9A4238
:100FB00002DA0020014610BD064B34339A4203DCAE
:100FC0009A1AFFF7C4FD10BD034BD218FFF7AFFD0F
:100FD00010BD0000FF030000CDFBFFFF064C012504
:100FE000064E05E0E36807CC2B430C3C98471034D1
:100FF000B442F7D3FFF7BAF8983B0000B83B0000C3
:1010000010B50F21C0B2490200F02EF810BD70B526
:10101000002801DC002070BD410040020126400A8A
:10102000F605090E8019CA0701D14000491E4D106E
:10103000002211463F353346CB409B18D4188442DA
:1010400001D8001B1A464000491C1729F3DD510046
:10105000814202D20021C94300E00021E805801846
:10106000FFF70EFE70BD00007F2801D9002207E0C7
:10107000054B42089A5CC00700D112091207120FF3
:101080000120904008407047583B0000F0B596465C
:10109000124AC000841800230025FF229A402846E7
:1010A0000A4216D0002201269E40B4460E46D64083
:1010B00067463E4206D097000F26BE40354376462F
:1010C000BE403043521C082AF0D32268AA43024390
:1010D00022600833241D082BDEDDF0BD20200240F5
:1010E000F8B54248007800282DD041A14248FFF7CA
:1010F0008BF8054641A1FFF7E3F80446001D01F017
:10110000B3FB224629460090FFF792F83CA10098D5
:10111000FFF76EF83BA10098FFF776F8364C0026F3
:10112000103C002807D038A10098FFF7A5F800254B
:1011300000283CD144E0267334A001F005FB009860
:1011400001F060FB0020F8BD012D06D0022D13D068
:10115000032D1BD0052D2AD139E02068002802D0AC
:1011600001F050FB2660082001F07EFB394620602C
:10117000FFF779F8206817E022A1FFF766F800284A
:1011800001D0267313E00120207310E0606800286E
:1011900002D001F037FB6660082001F065FB39469C
:1011A0006060FFF760F8606815A1FFF721F816A1ED
:1011B0000020FFF761F86D1C0746EDB20028C3D18F
:1011C000009801F01FFB00F037F80120F8BDA0687F
:1011D000002802D001F016FBA660082001F044FBB5
:1011E0003946A060FFF73FF8A068DDE70200002065
:1011F000474E524D43000000B00400200D0A00008D
:1012000000000000410000002C0000004C6F6361F2
:1012100074696F6E206661696C7572650D0A0000F5
:1012200010B504480021017341608160016001F044
:1012300001F910BDA0040020FEB5714D00216868C1
:1012400002F07CFCFFF7EAFB0446FFF7BFFB064613
:101250000F463B4632466BA001F076FA0021A868A3
:1012600002F06CFCFFF7DAFB0546FFF7AFFB024626
:1012700000900B46019167A001F066FA30463946AE
:101280000022684BFFF76DFB00221346FFF7B2FB0D
:10129000204631D8FFF786FB064680B26249FEF74A
:1012A0006DFF0A21FEF76AFF0F46642047437D2148
:1012B000B0B2C900FEF762FF0A21FEF75FFF0A2005
:1012C00041437F18B0B26421FEF758FF0A21FEF7B0
:1012D00055FF7E183046FFF75EFB5449FFF715FABD
:1012E0002146FFF70EFA5249FFF74CFA0446304602
:1012F000FFF751FB214623E0FFF754FB07467D2112
:1013000080B2C900FEF73AFF0A21FEF737FF0E460A
:101310000A204643B8B26421FEF730FF0A21FEF7E7
:101320002DFF7018FFF737FB06464049FFF7EDF930
:101330002146FFF7E6F93E49FFF724FA0146304619
:10134000FFF78AF904460022364B01990098FFF70F
:1013500008FB00221346FFF74DFB284618D8FFF77D
:1013600021FB064680B23049FEF708FF0A21FEF74E
:1013700005FF0F46642047437D21B0B2C900FEF748
:10138000FDFE0A21FEF7FAFE0A2041437F180DE018
:10139000FFF708FB06467D2180B2C900FEF7EEFE8E
:1013A0000A21FEF7EBFE0A200F464743B0B2642144
:1013B000FEF7E4FE0A21FEF7E1FE7818FFF7EBFAEC
:1013C00006461A49FFF7A1F92946FFF79AF9184985
:1013D000FFF7D8F901463046FFF73EF905462046AB
:1013E000FFF7F4FA02460B4612A001F0ADF92846C9
:1013F000FFF7ECFA02460B4612A001F0A5F9FEBD7C
:10140000A00400204C617469747564650925660D3B
:101410000A0000004C6F6E67697475646509256683
:101420000D0A00000088C340102700000000C842D9
:10143000000070424C617469747564655F540925DD
:10144000660D0A004C6F6E6769747564655F5409B8
:1014500025660D0A0000000070B5134E0446706B3F
:1014600045076D0F00F024F8104920602B0001F0B3
:1014700092F9081405070714140E1114606000E0B7
:101480006160306A05280AD36068410909E00120DB
:10149000C003F3E77D200002F0E70020EEE761687B
:1014A000C140A16070BD00000080084000127A00B9
:1014B0000C490868C869C20F4868400AC007C00FD5
:1014C0000ED00948002A0BD18869C00DC006C00E95
:1014D00000D110208969044A4902890F5043C8404D
:1014E000704700000080084000127A001EB54209D3
:1014F0000A4B92000021D2182E2800D10221C006EA
:10150000C00E1268032383401A40C2405418684634
:10151000FFF7A2FF0298E0401EBD0000388008409F
:10152000F0B5084F7D6AFE6A3C6B85438E43944359
:10153000002B02D005430E4314437D62FE623C63E0
:10154000F0BD00000080084010B504460420C043F0
:1015500000F07EFE10487D2189010068FEF70EFE36
:1015600000F0A0FE002000F091FE002000F07CFEC4
:10157000012000F079FE0021084803E00269D2034F
:10158000FCD5491CA142F9D30120C04300F06CFEF8
:10159000002000F069FE10BD0800002000E000E01F
:1015A00070B57D250446ED0002E02846FFF7CCFF2C
:1015B000641EFAD270BD81627047000010B5092028
:1015C00001210022000489030123FFF7A9FF194C20
:1015D00000220221204600F031F80122022120469B
:1015E00000F034F800220221204600F03FF8124CAF
:1015F00040212046FFF7DFFF01224021204600F076
:101600001DF801212046FFF7D6FF01221146204692
:1016100000F014F801221146204600F01FF80221C4
:101620002046FFF7C8FF01220221204600F006F8FD
:1016300010BD000000600B4000000B40002A026853
:1016400001D00A4300E08A4302607047002A4268E2
:1016500001D00A4300E08A4342607047002A0269D1
:1016600001D00A4300E08A430261704710B58468E4
:10167000C3688C438B43002A02D0012A03D101E0C6
:101680000C4300E00B438460C36010BDC069084098
:1016900000D00120704741627047FEE7F8B50C2189
:1016A000404800F00FFB0546C00272D5E80700264F
:1016B0003D4F002800D03E803C4CA80218D568075A
:1016C00002D5E088216806E0A8033BD5E088A18820
:1016D000884207D22168095C401CE080314800F054
:1016E000F9FA2EE02F4800F090FA0120207228E04D
:1016F000680709D5208A012801D8002100E00121CE
:10170000284800F06DFA1CE0E8031BD5254800F0DE
:10171000DEFA628AE1688854608A401C80B2608286
:10172000218A491E884203D100211E4800F058FA40
:10173000608A218A884204D11A4800F066FA0120A2
:1017400020753E80052109020D4205D0154800F0A4
:1017500051FA042020722075280507D50121C902FD
:10176000104800F047FA032020722075A8050ED516
:101770000C4D01214902284600F03CFA284600F0B1
:1017800044FA02202072217D002900D12075F8BD85
:10179000FFE70F20000205402946024800F02AFA20
:1017A000F5E70000008004400000002060020020F7
:1017B00070B5032000221D4940040123FFF7B0FE4D
:1017C00001241B4DE403002221462846FFF74EFF6B
:1017D000184E002201213046FFF748FF0022214623
:1017E0002846FFF72BFF012221462846FFF72EFF50
:1017F000002201213046FFF721FF01221146304629
:10180000FFF724FF072221460120FFF73FFC0722B4
:1018100001210220FFF73AFC0020401C80B2FF2883
:10182000FBD900F09FF800F0B9F870BD024000004D
:1018300000200B4000400B40F8B50C21404800F060
:1018400041FA0546C00272D5E80700263D4F002840
:1018500000D03E803C4CA80218D5680702D5E0882D
:10186000216806E0A8033BD5E088A188884207D21A
:101870002168095C401CE080314800F02BFA2EE022
:101880002F4800F0C2F90120207228E0680709D52E
:10189000208A012801D8002100E00121284800F019
:1018A0009FF91CE0E8031BD5254800F010FA628A76
:1018B000E1688854608A401C80B26082218A491E97
:1018C000884203D100211E4800F08AF9608A218AEB
:1018D000884204D11A4800F098F9012020753E8012
:1018E000052109020D4205D0154800F083F90420B6
:1018F00020722075280507D50121C902104800F083
:1019000079F9032020722075A8050ED50C4D012110
:101910004902284600F06EF9284600F076F90220C8
:101920002072217D002900D12075F8BDFFE70F202E
:10193000000205402946024800F05CF9F5E7000086
:10194000009004400400002088040020002A02D0F7
:10195000012292021143C1610149002008807047B1
:101960000400002010B50B4A00201168890708D533
:1019700063210B46491E89B2002BFAD1401C642812
:10198000F3D301210448FFF781FE002801D100F0C4
:101990007DF810BD0090044000400B403EB500248F
:1019A000224602210123104600F032FC68460470F2
:1019B00044708470552101810C48019068460C4D9B
:1019C000C4706946284600F025F90121284600F038
:1019D00013F901220749284600F06CF90120064955
:1019E00000050860054804803EBD0000A086010097
:1019F000009004400506030000E100E00400002020
:101A0000F8B507466846017016461D46012269462C
:101A1000384600F0BBF81148114C05E001880F2949
:101A200002D9FFF7BBFF02E0217A0029F6D0207A25
:101A3000012802D002202075F8BDE660002D00D1FB
:101A400001252582002060822075FFF78BFF01228F
:101A5000920239460348FFF779FFF8BD04000020E1
:101A6000880400200090044010B50648064905E0AF
:101A700002880F2A02D9FFF791FF10BD0A7D002AC4
:101A8000F6D010BD0400002088040020F8B5012421
:101A9000E403002221460120FFF7F8FA0022012189
:101AA0000220FFF7F3FA374E012221463046FFF7B6
:101AB000D5FD21463046FFF7EEFD01222146304696
:101AC000FFF7BCFD304F012211463846FFF7C6FD37
:101AD00001213846FFF7DFFD012211463846FFF7A6
:101AE000ADFD21463046FFF766FD32200146401E1F
:101AF00080B20029FAD1002521463046FFF7CBFD00
:101B000031200146401E80B20029FAD121463046DC
:101B1000FFF751FD31200146401E80B20029FAD165
:101B20006D1CEDB2092DE7D301213846FFF743FDC7
:101B300031200146401E80B20029FAD121463046AC
:101B4000FFF7A9FD31200146401E80B20029FAD1DD
:101B500001213846FFF79FFD002221463046FFF75E
:101B60006DFD002201213846FFF768FD072221465E
:101B70000120FFF78BFA072201210220FFF786FAE6
:101B8000F8BD000000200B4000400B4010B5094B91
:101B900004461960002A00D101229A800020D880D2
:101BA0001872FFF7DFFE002221460348FFF7CEFE42
:101BB00010BD0000880400200090044010B50648C5
:101BC000064905E002880F2A02D9FFF7E7FE10BD9B
:101BD0000A7A002AF6D010BD0400002088040020F4
:101BE0000029016802D00122114301E0490849009F
:101BF00001607047C160704708220029016801D068
:101C0000114300E0914301607047016802221143D3
:101C100001607047FEB504460E46087849780025F5
:101C20000843B17822682F4685239A43114308431D
:101C300020603089A0601D48844201D1002003E06B
:101C40001B48844203D10220FFF750FC054621685F
:101C500003208003014024D001208003091A22D0F0
:101C6000814200D10927716814204143E8002818F7
:101C70000191FEF783FAC11BF07800900E1A2846F6
:101C80000B2250430199FEF779FAC11B0098081AFC
:101C9000002E00DA0026002800DA002026616061AC
:101CA000FEBD0627DFE70827DDE7000000800440CF
:101CB00000900440002A426801D00A4300E08A43B1
:101CC0004260704708B540180090006808BD806900
:101CD000C0B2704781617047FEE7FEE710B5002192
:101CE000082000F087FAA2210A2000F083FA0220DF
:101CF000FFF756FC462000F035F9002800D00120FF
:101D000010BD000070B50024002000F02BF905463E
:101D1000052804D0641CE4B2052CF5D305E00120AD
:101D200000F020F902467C2801D0012070BD294630
:101D300002A000F009FD002070BD0000716D69383F
:101D4000363538B5C4C9E8B1B8B1EACAB6B7FBA3ED
:101D5000BA2523782C20C9E8B1B84944A3BA252371
:101D6000780D0A0038B51D4C1546002809D01028FA
:101D70000AD001221203202808D030280AD02020BF
:101D800004E00122920301E001225203E280012BD0
:101D900003D004E00122D202F8E70843802108437F
:101DA00069460870C1B2032000F024FA0122694696
:101DB000062000F0E6F8694608780009000108707E
:101DC000012D07D0400840000870C1B2062000F085
:101DD00011FA38BD072108436946F5E7E005002000
:101DE000FFB503071B0F4025264A8024102781B02A
:101DF000002B3ED10611330000F0CDFC0805080C85
:101E00000F121416183B0123DB0201E001239B0291
:101E100013810CE001235B02FAE7FF230133F7E7AC
:101E2000148104E0158102E02023F1E71781049A70
:101E3000012A20D0084369460870C1B2042000F08E
:101E4000D9F901226946062000F09BF86946087816
:101E50000007000F0870039901290FD0EF210840F7
:101E60006946087068460178062000F0C3F905B09D
:101E7000F0BD5020D6E708432043DCE7702108433B
:101E8000EEE70000E005002070B50546002000F0F8
:101E90002BF8144C002D09D00120207020206070F8
:101EA0000D20A0706020E070052006E00320207067
:101EB000302161700420A070E17020712078C0078B
:101EC00005D00123A17860781A46FFF74BFF2078F0
:101ED000800705D501232179E0781A46FFF780FFB6
:101EE00070BD0000E005002010B504460146082042
:101EF00000F080F9A0070349800F08700220FFF767
:101F000023FB10BDE005002010B5FFF751FC00F0E9
:101F100067F9FFF7F7FE002803D1FFF7DFFE00287F
:101F200001D0012010BD0AA000F00EFC60210220AB
:101F300000F060F90021082000F05CF90020FFF7B4
:101F4000A3FF07480078FFF7CFFF002010BD000077
:101F5000D0A3D7BCB3C9B9A6A3A1A3A10D0A000001
:101F6000E005002008B5002269460A7001460123F9
:101F70006A466A20FFF744FDFFF776FD6946087858
:101F800008BD13460A4610B501466A20FFF738FD22
:101F9000FFF76AFD10BD0000F3B593B000240C22DA
:101FA00007A93520FFF7EDFF69461C20085E2625AE
:101FB00007461E20085E0F902020085E0C9022200D
:101FC000085E08850E902420085E488506464D5F11
:101FD00063488D85C088FEF7DEFC1190109038466E
:101FE000FEF7CEFC5F4F3946FEF78FFB1099FEF7E8
:101FF000C9FB049011980D900F98FEF7C1FC39466B
:10200000FEF783FB0D99FEF7BDFB059011980D902F
:102010000C98FEF7B5FC3946FEF777FB0D99FEF7F5
:10202000B1FB06904E48B42100894843FEF7B3FC4B
:102030000F900C900E98FEF7A3FC4B4F3946FEF71D
:1020400064FB0C99FEF79EFB01900F980C903046B4
:10205000FEF796FC3946FEF758FB0C99FEF792FB0B
:10206000029028460F9EFEF78BFC3946FEF74DFB8B
:102070003146FEF787FB03903C480378384E243EF8
:1020800037460C3F012B57D04568002D02D0642DF8
:102090000FDB31E03249002230398A61CA610A62BD
:1020A0004A628A62CA620121416015B0F0BD022C09
:1020B00017D02B4FA60004A88159183FB859FEF736
:1020C000CBFAB8513E460C36A70001A8C159F059C9
:1020D000FEF7C2FA641CE4B2F051032CE7D32348A4
:1020E00027E020490698FEF708FB1D4F183FB96806
:1020F000FEF7B2FAB860E7E7642DD6D118481C4F56
:10210000A6000C3880593946FEF73CFB14492439A7
:10211000885108460C3080593946FEF733FB104988
:10212000641C3039E4B28851032CE7D30F480121F5
:1021300001706D1C4560B8E7A50004A879594059A5
:10214000FEF78AFA1399485101A871594059FEF7D0
:1021500083FA1499641CE4B24851032CECD3A4E72D
:10216000E005002079E91C41DB0F49401000002008
:102170000000C6C2F8B506460D4600206946087044
:102180000746164C19E0012269462E20FFF7F9FE9A
:1021900068460078800710D029463046FFF7FCFEDD
:1021A0003068E06070682061B06860612868A06194
:1021B0006868E061A8682062F8BD38467F1C032883
:1021C000E1DBE0683060206970606069B060A06940
:1021D0002860E0696860206AA860F8BDE00500201A
:1021E00010B5B021602000F005F89620FFF7ACF99B
:1021F00010BD000010B5054A10705170022203494D
:102200006A20FFF7C3FCFFF7D9FC10BD11000020C6
:10221000F0B5084F7D68BE68FC6885438E439443E3
:10222000002B02D005430E4314437D60BE60FC606A
:10223000F0BD0000008108400349C2B20A600A698B
:10224000D205FCD57047000000100040FEE70000FA
:10225000042204490428086902D0904308617047A9
:102260001043FBE700E000E00749002806D0012802
:10227000086906D040084000086170470020886166
:10228000704701221043F7E700E000E00449022212
:102290000028086901D0104300E0904308617047AE
:1022A00000E000E0014948617047000000E000E004
:1022B000F0B539491020C860384D012028603848F1
:1022C000016B4024214301633649002243158E6887
:1022D000272EFCD100E04B604E68B605FBD500E030
:1022E0004A604E68B605FBD42A60416A0325AD02F8
:1022F000A943416241680125ED022943416081689B
:10230000C908C907FBD04168C908C900C91C416098
:10231000416B4907490F0329FAD123490D68ED089C
:10232000ED006D1C0D60026245689D4345600668C6
:102330008D152E43066046680F153E43466086683D
:10234000B608F607FBD0066BA64306630468AC43E9
:10235000046003242406846144681C434460836849
:102360005B08DB07FBD00B68DB08DB009B1C0B600A
:1023700002624268D208D200521C4260426B52078D
:10238000520F012AFAD10868102210430860086829
:10239000120210430860F0BD00810840008308402D
:1023A0000080084000A10640000208401FB500243C
:1023B000112101208902800401232246FFF7B0F891
:1023C000002220211348FFF751F906221021022094
:1023D000FEF75CFE062220210220FEF757FEE120D8
:1023E0004002FF210090013168468180C480048151
:1023F0000394094C6946204600F058F90122114621
:10240000204600F08EF901220021204600F089F9D3
:102410001FBD000000400B400010004010B500F050
:10242000A9F8FF2101310248FDF7D7FE10BD0000D9
:10243000780200207FB5FF250024013541210902E3
:10244000280201232246FFF76BF8002208211748D3
:10245000FFF70CF9062204210020FEF717FE0622E2
:1024600008210020FEF712FE4B20C00100906846B4
:102470008580C48004810394AC056946204600F041
:1024800015F901221146204600F04BF901220021E6
:10249000204600F046F901221146204600F034F9AA
:1024A000172000F0A3F900F065F87FBD00000B4095
:1024B000F8B50126B6073069C00519D5244CA088A7
:1024C00000283ED00025E71FF93F6088395C304680
:1024D00000F025F9A078401CC0B26080A088401EA2
:1024E0000004000CA08003D06D1C2D042D0CECD03A
:1024F0003169304689060DD500F00EF915490A8874
:10250000CB1FF93B98540878401CC0B208808888DB
:10251000401C888010A11248FDF776FE044611A1E8
:102520000F48FDF771FE002C0AD0002808D00C4996
:102530000E48FDF798FEFFF771FF0D490120087066
:10254000F8BD00220421304600F0DEF8D0E700009C
:1025500080040020780300202442444753560000A2
:102560007802002024474E5654470000B004002053
:102570000200002005490020488008808880FF3143
:102580000931488008808880704700007803002067
:102590001FB5002421210120490200040123224605
:1025A000FEF7BEFF002220211848FFF75FF8062241
:1025B00010210020FEF76AFD062220210020FEF7F0
:1025C00065FDE1204002FF210090013168468180D5
:1025D000C480048103940E4C6946204600F066F8DE
:1025E00001221146204600F09CF8012200212046DD
:1025F00000F097F801221146204600F085F81820D7
:1026000000F0E8F800F044F81FBD000000000B40A7
:1026100000000440F8B51B4E3069C00519D51A4CAE
:10262000A088002828D00025E71FF93F6088395C82
:10263000304600F074F8A078401CC0B26080A088DA
:10264000401E0004000CA08003D06D1C2D042D0C36
:10265000ECD03169304689060DD500F05DF80B49A4
:102660000A88CB1FF93B98540878401CC0B20880F8
:102670008888401C8880F8BD00220421304600F084
:1026800043F8E6E700000440580200205001002013
:1026900005490020488008808880FF310931488042
:1026A00008808880704700005001002070B50D46FA
:1026B0000446C988AA88002011432A896368114EFC
:1026C00033401A431143EA681143616031076218CD
:1026D0000BD001210903521A11D03F231B03D21A38
:1026E00005D08A4206D11E2002E0182000E01A2000
:1026F000FEF7FCFE2968FDF741FD606270BD1C20FD
:10270000F6E70000FCE0FFFF002AC26801D00A43A0
:1027100000E08A43C2607047006880B27047016081
:10272000704710238B404168002A01D0194300E014
:1027300099434160704700000249014808607047B2
:102740000100A05F008006400FB410B503A9044B40
:10275000044A029800F09AF910BC08BC04B018476B
:102760007D3500000C0000202021020C01D010213A
:102770001046020A01D010460839020901D010465D
:10278000091F820801D01046891E420801D0881E08
:102790007047081A704730B47446641E2578641C6C
:1027A000AB4200D21D46635D5B00E31830BC1847A6
:1027B0004100080200D004200A0E01D0012210437B
:1027C000090EFF2901D102210843012800D105206B
:1027D00070470000002805DBC106C90E01208840B3
:1027E000014908607047000000E100E0002805DBB7
:1027F000C106C90E012088400149086070470000E9
:1028000000E100E030B5002805D0164C021F20681A
:102810000023014605E0084630BD904203D8034638
:1028200040680028F9D1002B00D05968002B0AD04D
:102830001C68D51AA54204D11268A4181A461C6057
:1028400002E05A6000E02260002807D01468851A70
:10285000A54203D1056864191460406850601846A9
:1028600030BD000044000020F1B50E4C0F480C4E66
:10287000001B0D4FC508ED0000221146009801F025
:10288000C5F8002803D13068002801D00020F8BD29
:102890003C6000202560606001203060ECE70000B3
:1028A000480000202C06002044000020281A0020A8
:1028B00010B50121FDF7A4FF10BD10B5FDF7CCFE4A
:1028C00010BD10B500210846FDF75CFF10BD5E216C
:1028D00010B5C9430807FDF793FF10BD02E008C813
:1028E000121F08C1002AFAD170477047002001E08A
:1028F00001C1121F002AFBD1704700000149086086
:10290000704700004C000020F0B51FB486B0099855
:10291000089A030D0021024314D05148514A181857
:10292000504305141198012810981AD0281A401CF9
:1029300000264D4F4D49009601910490002812DA6F
:10294000444211E01198012449A3012801D11098B3
:10295000C1430698119A84600360C26041600BB065
:10296000F0BD4042E4E70446210500203F4A001C38
:1029700051410391029012E0E00707D032463B46F6
:1029800001990098FEF71CFA0191009032463B46EF
:1029900010461946FEF714FA06460F466410002C3E
:1029A000EAD10498039B0028029A0999089806DA4C
:1029B000FEF706FA019B009AFEF702FA05E0FEF721
:1029C00067FA019B009AFEF763FA04460E4600225E
:1029D000284BFEF70FF803D80020C043014607E05C
:1029E0000022254B20463146FDF716FFFEF7D6FAAA
:1029F000102409E0002C0ADB0A220023FEF72AF843
:102A0000079B30321A55641E02460A43F2D1112246
:102A1000641C079B121B1C19119B012B03D0012363
:102A200008430ED10AE0084304D011201090002082
:102A3000119077E71098151A6D1E0BE010988242DE
:102A400002DD00236D1C03E0824201DA00236D1ECB
:102A5000002BEED0069811998260C16030C07EE7ED
:102A600001FCFFFF104D0000000014400000F03F8B
:102A7000300000000000F0430000E03F30380A283A
:102A800001D201207047002070470000FFB597B0C9
:102A9000064600251BE2252876D100242746F74963
:102AA000049400E00443761C32780120203A9040E0
:102AB0000842F7D130782A280ED002223078014619
:102AC0003039092916D804990A2359433039401856
:102AD0001443761C0490F1E7189802C804911890EA
:102AE000002904DA012040030443484204900220F4
:102AF0000443761C30782E2814D1042004437078C7
:102B0000761C2A2809D11898761C80C8189009E0EC
:102B10000A214F43303FC719761C307801463039BF
:102B20000929F5D930786C2810D006DC4C281AD049
:102B300068280ED06A2817D104E0742813D07A28A8
:102B400012D110E00120400504430CE001210905E9
:102B500001E0032109050C437178814203D1012072
:102B600000052418761C761C307866280BD013DC00
:102B700058287DD009DC00287BD04528F6D046288F
:102B8000F4D047281AD1A9E118E0632835D0642889
:102B900070D0652812D1A1E170286CD008DC6728BC
:102BA000F1D069287DD06E280DD06F2806D1BCE009
:102BB00073282ED0752873D0782859D01A9A19996D
:102BC00090476D1C82E16002400F022809D0032863
:102BD0000DD00428189801680DD00D60001D1890C4
:102BE00074E11898EA1701680D604A60F6E71898D2
:102BF00001680D80F2E70D70F0E718986A460178D9
:102C00001172001D18900020507202A8009001203F
:102C100005E0189802C8189000200091C043610791
:102C20000ED5002101E00199491C0191B94213DA46
:102C30008142F8DB019A0099895C0029F3D10BE00D
:102C4000002101E00199491C01918142FADB019ABE
:102C50000099895C0029F5D1019904981A9B471ABB
:102C600021463846199A00F099FA4019019903E073
:102C700051E030E115E050E0451807E00098009978
:102C80000078491C00911A9A199990470198401EA2
:102C90000190401CF2D1214638461A9B199A12E144
:102CA00037E00A200021009001916002410F0229C3
:102CB00007D0189A01CA1892C2179446032908D05F
:102CC0000AE01898C01DC108C90005C918919446AA
:102CD00007E000B2C2179446042902D140B2C117DE
:102CE0008C4600226146944506DA0A46002140429D
:102CF00091418C462D2102E0210504D52B216A4605
:102D00001173012103E0E10701D02021F7E70291CF
:102D100056E00A200AE0102008E010200090002170
:102D2000042004430191082703E0082000210191B9
:102D300000906002410F022907D0189A01CA189228
:102D400000229446032908D008E01898C01DC10845
:102D5000C90005C91891944603E080B2042900D146
:102D6000C0B20021029121072AD531780D91702936
:102D700006D0009A1021019B4A401A4305D00EE06C
:102D800040216A461173012108E06146014306D0E3
:102D900030216A4611730D99517302210291009AF4
:102DA0000821019B4A401A430AD16146014301D1DF
:102DB000610705D530216A46117301217F1E0291FA
:102DC0003178582904D02EA10E910DA90D910DE056
:102DD00030A1F9E76146019B009AFDF73BFE0E9B8F
:102DE0008C469B5C0D9A521E0D92137061460143F6
:102DF000F0D10D9805A9081A20300190600703D57D
:102E000001200004844300E001270198874201DD8E
:102E1000381A00E000200199009041180298091822
:102E20000498401A0490E00306D421461A9B199A8C
:102E3000049800F0B3F94519002706E003A81A9A90
:102E4000C05D199990476D1C7F1C02988742F5DB85
:102E5000E0030CD521461A9B199A049800F09EF9BC
:102E6000451904E01A9A3020199990476D1C009971
:102E7000481E00900029F5DC1FE000000928010031
:102E800030313233343536373839616263646566E0
:102E900000000000303132333435363738394142A2
:102EA00043444546000000000D980D990078491CE8
:102EB0000D911A9A199990476D1C0199481E01901D
:102EC0000029F1DC4DE100F059F94519761C307804
:102ED000002800D0DFE528461BB0F0BD600700D415
:102EE00006271898C01DC108C90048680A6808313B
:102EF000C30FDB071891190001D09CA108E0210540
:102F000001D59BA104E0E10701D09AA100E09AA1BC
:102F10004300109130785B0865280CD006DC45280A
:102F200009D046281DD0472841D141E0662818D055
:102F300067283CD13CE00021112F01DB112000E08B
:102F4000781C0191009008A911A8FFF7DDFC1399E6
:102F500005910021119A15927F1C129801970091FA
:102F600050E00120C00703900120019008A90097BC
:102F700011A8FFF7C9FC139A149905920022119B1E
:102F8000009212981593059A0192002901D01046DB
:102F900002E0791C40180190381A01D5019804E02C
:102FA0004042401E0090781C0190C01B029043E0FC
:102FB000012F00DA01270021112F01DD112000E08F
:102FC00038460191009008A911A8FFF79DFC1399BC
:102FD0000591119A002112981592009101972107ED
:102FE0000CD40599B94201DB019900E00191012956
:102FF00004DD159A491E515C302906D0B84201DA29
:10300000011D05DA0121029115E00199491EEDE744
:10301000002805DC0099411800910199091A03E084
:10302000019A411C914200DD01910099401A401C17
:1030300002900120C0070390200706D4029901984E
:10304000814202DB0020C043029000206946C8771D
:1030500007AF012103980337C907884224D0022013
:1030600011902B201290039800280CDA4042039014
:103070002D20129007E00A210398FDF77FF83031E8
:103080007F1E039039701199481E11900029F2DCBF
:1030900003980028EFD1791E12980870307820210B
:1030A00008404530BF1E387006A8C01BC01D0390E5
:1030B00010980078002800D001200199411802984A
:1030C000C0170918039809180498401A401E049064
:1030D000E00306D421461A9B199A049800F05EF882
:1030E000451910980078002803D01A9A199990472A
:1030F0006D1CE00324D521461A9B199A049800F010
:103100004DF845191CE00098002807DB0099059848
:10311000884203DD1598405C199901E01999302027
:103120001A9A904700986D1C401C00900298401E0F
:103130000290002804D11A9A2E20199990476D1CEC
:103140000199481E01900029DDDC05E038781A9AC3
:103150007F1C199990476D1C0399481E0390002904
:10316000F4DC21461A9B199A0498ACE62D00000065
:103170002B0000002000000000000000F8B504460D
:1031800000251E461746880404D405E03946202051
:10319000B0476D1C641EF9D52846F8BDFFB504463E
:1031A000002581B01E46C80301D5302700E0202746
:1031B000880404D505E038460399B0476D1C641EA9
:1031C000F9D5284605B0F0BDF8B5044647214000C2
:1031D00049060D2241181206914253D83F21490653
:1031E00088421BD960007F214008C905FDF789FA94
:1031F0000021C943FDF704FB074600F089FC002CC1
:1032000004DA2F4D2D4EA907484001E02D4E2E4DDA
:1032100003218907FDF779FA044606E000262146D6
:1032200035460846FDF771FA074628493846FDF746
:103230006CFA2749FDF710FA3946FDF766FA254979
:10324000FDF70AFA3946FDF760FA2349FDF704FA5B
:103250003946FDF75AFA2149FDF7FEF90090394643
:103260002046FDF752FA0099FDF74FFA0746294626
:103270002046FDF7F1F93946FDF7EEF93146FDF745
:10328000EBF9F8BD39214906884208D22046FFF7FC
:103290008FFA042801D1FFF71AFB2046F8BDFF2161
:1032A0000906884203D92046FFF702FBF8BD01203A
:1032B000FFF724FBFFF705FBF8BD00000000C9BFC6
:1032C00022AAFDB90000C93F22AAFD3924FE1C3DF7
:1032D000C78AD83C1E67383D1B93993DAFAA2A3E4A
:1032E000F0B50C4601461D224B00D2069F18E5267C
:1032F00005463606620087B02046B7427BD21D27BE
:10330000FF06D719B74276D24F0043003E0E1A0E81
:10331000B21A1B2A07DD002902DA854807B0F0BD82
:10332000844807B0F0BD1A26F2422FDA002807DAE7
:10333000002902DA804807B0F0BD804807B0F0BD30
:1033400021462846FDF71EFA0646FFF731FA042803
:1033500001D1FFF7BCFA2846FFF72AFA05462046B6
:10336000FFF726FA04463046FFF722FA042D01D073
:10337000052D08D1042C01D0052C04D1002802D140
:103380000220FFF7BBFA304607B0F0BD9F4211D9CB
:10339000002902DA6A4F6B4E01E06B4F6B4E2346F9
:1033A0002C461D4601220346D20708465440504091
:1033B00019460BE0002807DA002902DA644F654E4F
:1033C00004E0654F654E01E000263746421A0123AE
:1033D00052001B069A422FD2484061490CD5BF20AB
:1033E000000602903846FDF788F907465D493046E9
:1033F000FDF783F90BE053E03F20000602903846CA
:10340000FDF72AF9074657493046FDF725F90646E4
:1034100028460299FDF779F92146FDF71DF900903C
:1034200021460298FDF771F92946FDF76AF90099DE
:10343000FDF7A8F9044604E021462846FDF7A2F965
:1034400004460146FDF761F947490090FDF75DF933
:103450004649FDF701F90099FDF757F94449FDF791
:10346000FBF80099FDF751F94249FDF7F5F800998D
:10347000FDF74BF94049FDF7EFF805462046009966
:10348000FDF743F92946FDF740F93146FDF7E4F829
:103490002146FDF7E1F83946FDF7DEF807B0F0BD4B
:1034A000FF263606B34201D8B24205D90146284666
:1034B000FFF703FA07B0F0BD2F4607437F000AD09D
:1034C000B3420CD1B2420AD10122920790439143F8
:1034D0000D46044618E7FF22D2051043F9E7B34230
:1034E0000CD047000AD0B2420ED04E000CD0534050
:1034F000F0D4002A0EDB9F26F6050DE0FF22D20550
:103500001143E00FC007FFE6C90FC907FF22D2052C
:103510001043F9E65F26F60531462846FDF7F5F833
:10352000054631462046FDF7F0F804462946EBE60D
:10353000DB0FC9BFDB0FC93FDB0F49C0DB0F4940C1
:103540000000C9BF22AAFDB90000C93F22AAFD3967
:10355000000049C022AA7DBA0000494022AA7D3A53
:103560000060ED3EC30ACE372DAD65BD8FB8D53DA9
:103570000FB511BE61C84C3EA8AAAABE10B5FEF791
:103580005BFE10BDF0B5464D8BB0E9690F4638467D
:10359000FDF7BBF80890296A01910846FDF7B5F8D8
:1035A0000990696A0E463046FDF7AFF80446A869EF
:1035B00039460546FDF7A9F8059028460199FDF71B
:1035C000A4F8049031462846FDF79FF80546384692
:1035D0000199FDF79AF8039031463846FDF795F8C2
:1035E000029031460198FDF790F8009001212046A5
:1035F000FDF706F907463C4601210998FDF700F959
:103600007F26F60531460990FDF77BF82146FDF748
:1036100074F8244C294620600398FDF76EF80121C8
:10362000FDF7EEF8606004990298FDF715F80121A6
:10363000FDF7E6F8A06029460398FDF70DF8012193
:10364000FDF7DEF8E0603D4601210898FDF7D8F867
:103650003146FDF756F806462946FDF74EF820613B
:1036600005990098FDF749F80121FDF7C9F8606157
:1036700004990298FDF741F80121FDF7C1F8A06116
:1036800005990098FCF7E8FF0121FDF7B9F8E06122
:1036900030460999FDF731F820620BB0F0BD00000B
:1036A0001800002004060020FFB50D468FB0064626
:1036B0000021C9431298FDF7A3F80390C14C776825
:1036C0002088B168002803D0401E2080BE4801E059
:1036D0007F20C0056060306804904000000E05D176
:1036E0007800000E02D14800000E7CD00846FDF79D
:1036F0000CF8394600900846FDF707F8049907468C
:103700000846FDF702F83946FCF7A6FF0099FCF7DA
:10371000A3FF00F061F9074639463068FCF7F5FF72
:103720003060029039467068FCF7EFFF70600490DB
:103730003946B068FCF7E9FFB060A44E0590F06927
:10374000019001460598FCF7E0FF0790376A04985E
:103750003946FCF7DAFF0799FCF7CFFF07903946A7
:103760000298FCF7D2FFB669074631460598FCF788
:10377000CCFF3946FCF7C1FF059031460498FCF7B1
:10378000C4FF064601990298FCF7BFFF3146FCF7DB
:10379000B4FF0746A06807990190FCF7B6FF12999D
:1037A000FCF7B3FFE168FCF757FFE06006460599B8
:1037B0000198FCF7AAFF1299FCF7A7FF2169FCF713
:1037C0004BFF206139460198FCF79FFF1299FCF7E7
:1037D0009CFF6169FCF740FF606107996068FCF736
:1037E00094FF314600E01CE0FCF736FF2968FCF747
:1037F00033FF2860606805990646FCF786FF21695B
:10380000FCF72AFF6968FCF727FF686039463046F5
:10381000FCF77BFF6169FCF71FFFA968FCF71CFF41
:10382000A860A7690697E669206A09900590606A12
:1038300008900490A868029001460498FCF765FF80
:103840000D906868019001460598FCF75EFF0E90A8
:103850000120C007296870400091FCF756FF0E99BF
:10386000FCF74BFF0D99FCF748FF0399FCF74DFF60
:103870003946FCF7F1FEA0610E9001990498FCF71F
:1038800044FF074602990598FCF73FFF054600995B
:103890000698FCF73AFF2946FCF7DEFE3946FCF7AE
:1038A0002CFF0399FCF731FF3146FCF7D5FEE061B0
:1038B000074600990498FCF728FF049030460299C7
:1038C000FCF723FF054601990698FCF71EFF2946E1
:1038D000FCF713FF0499FCF7BFFE0399FCF715FFF3
:1038E0000999FCF7B9FE2062054600990598FCF796
:1038F0000CFF009030460199FCF707FF064602993D
:103900000698FCF702FF3146FCF7A6FE0099FCF78B
:10391000F4FE0399FCF7F9FE0899FCF79DFE0146B9
:103920006062FCF7F2FE294602900846FCF7EDFEC5
:10393000054639460846FCF7E8FE0E990646084655
:10394000FCF7E3FE3146FCF787FE2946FCF784FED0
:103950000299FCF781FE00F03FF805460146A06998
:10396000FCF7D3FEA0612946E069FCF7CEFEE061DA
:103970002946206AFCF7C9FE20622946606AFCF7E6
:10398000C4FE6062FFF7FEFD104CA069FFF71CFC4F
:103990000F4D2946FCF7B9FE11990860216AE069CC
:1039A000FFF79EFC2946FCF7B0FE1199486021689C
:1039B000E068FFF795FC0749FCF7A7FE11998860BE
:1039C00013B0F0BD180000200000A0410406002044
:1039D000E12E6542E12E65C210B500210446C943BF
:1039E000FCF70EFF084A6110541A2146FCF78DFEC1
:1039F0002146FCF78AFEFF218905FCF782FE21465D
:103A0000FCF783FE10BD0000DF59375FF8B50B30BF
:103A1000C608F600104D19E02068B04215D3B04238
:103A20000BD96368871B201D0093FCF7BDFBA01911
:103A3000009B07604360286004E060682860201DE8
:103A4000FCF7B2FB201D2660F8BD251D2C68002C5C
:103A5000E2D10020F8BD0000440000208AB0FEF74B
:103A6000A5FCFEF795FDFDF7A9FD18A0FEF76CFE7D
:103A7000FDF7D6FB0020009001900290FEF744FA7B
:103A8000002802D013A0FEF75FFE174C174E184D0A
:103A900003A906A8FEF76EFB2078002805D0334660
:103AA0006A4603A906A8FFF7FFFDFDF719FB0028EA
:103AB00002D010A0FEF748FE0120FDF771FD286B33
:103AC000C006E5D5FEF738FEE2E7000068656C6CDD
:103AD0006F0D0A00CDD3C2DDD2C7B3F5CABCBBAFF0
:103AE000CAA7B0DC0D0A000010000020A69B443CD1
:103AF000008008404154474D5F416E616C797365A9
:103B00004C6F636174696F6E207965730D0A0000F4
:103B100070B50546FDF77BFA41000446FF204908D1
:103B2000C005411AC90F07D069004908401AC00FE3
:103B300002D10120FEF7E2FE204670BD00B50A4624
:103B400083B000210091019101466846FDF761F8BC
:103B50000199009803B000BDDDDDDDDDDCBBBBDD20
:103B6000DDDDDDDDDDDDDDDD98888888888888881D
:103B7000777777777788888885555556666666663D
:103B8000666666666668888883333332222222221C
:103B9000222222222228888DB83B0000000000202B
:103BA00050000000DC280000083C0000500000200D
:103BB000D8250000EC2800000000000000000000F4
:103BC000006CDC02000000000000000000000000AB
:103BD000C80000000000A0410AD7233C00000000FC
:103BE00000000000000000000000803F0000000016
:103BF00000000000000000000000000000000000C5
:083C00000000000000000000BC
:04000005000000C136
:00000001FF
